:10000000971100109381018017410010130181FFA7
:10001000130D0000930D0000130500339705001029
:10002000938545FE170600101306C6FD63FCC50048
:100030008322050023A05500130545009385450044
:10004000E3E8C5FE170500101305C5FB9705001072
:10005000938545FB6378B500232005001305450013
:10006000E36CB5FEEF00801DEF004012130D100091
:040070006F0000001D
:10007400130101F823221100232421002326310037
:1000840023284100232A5100232C6100232E7100D0
:1000940023208102232291022324A1022326B102D8
:1000A4002328C102232AD102232CE102232EF102A8
:1000B40023200105232211052324210523263105AC
:1000C40023284105232A5105232C6105232E71057C
:1000D40023208107232291072328C107232AD1073C
:1000E400232CE107232EF10773252034F325103444
:1000F4001356F50163060600EF0080176F00C00079
:1001040093854500739015348320410003218100B9
:100114008321C100032201018322410103238101C0
:100124008323C101032401028324410203258102A4
:100134008325C10203260103832641030327810388
:100144008327C1030328010483284104032981046C
:100154008329C104032A0105832A4105032B810550
:10016400832BC105032C0106832C4106032E0107B2
:10017400832E4107032F8107832FC1071301010831
:10018400730020306F000000130101FC232E1102C4
:10019400232C810213040104EF00C0102324A4FEC5
:1001A4002326B4FE930750002322F4FE9307A000F5
:1001B4002320F4FE9307A000232EF4FC9307C00031
:1001C400232CF4FC032744FE930750006316F70026
:1001D400930D10006F008000930D0000EF00800C61
:1001E4002328A4FC232AB4FC032604FD832644FD0F
:1001F400032584FE8325C4FE3307A64013080700A5
:1002040033380601B387B640B386074193870600A7
:100214002324E4FC2326F4FC9307D002938D0700E7
:1002240093070000138507008320C103032481037F
:100234001301010467800000130101FF232611004C
:10024400232481001304010193074007739057305E
:10025400B727000093878788739007301300000046
:100264008320C10003248100130101016780000081
:10027400130101FE232E1100232C8100130401021B
:100284002326A4FE2324B4FE97000000E700000008
:10029400130000008320C101032481011301010222
:1002A40067800000130101FD23261102232481022B
:1002B40013040103F32600C02326D4FE8326C4FEC0
:1002C4002320D4FE232204FEF32600C8232ED4FCCC
:1002D4008326C4FD138706009307000093150700C7
:1002E40013050000032604FE832644FE3307A600FC
:1002F400130807003338C800B387B600B306F80004
:10030400938706002320E4FE2322F4FE032704FE41
:10031400832744FE13050700938507008320C10249
:0C03240003248102130101036780000024
:00000001FF
